:100000000A128A115B2C00308A000408840A8207D5
:100010000034503472346F34633465347334733461
:1000200069346E3467342E342E342E342E342E340C
:100030002E3400346F346E342034743468346534B4
:1000400020347234653461346434653472342E344F
:100050000034753473346534723420346E346F3444
:100060007434203466346F3475346E346434003440
:1000700050346C34613463346534203479346F34F3
:1000800075347234203449344434003420342034FC
:1000900020345234463449344434203464346F3488
:1000A0006F34723400342034203420347334653497
:1000B000633475347234693474347934003475348B
:1000C0007334653472343A3420340034493444345F
:0E00D0003A3420340034493444343A34003495
:1007C000E12B831203138C1EE62BE72BE12BE82B86
:1007D0001A08F0007008F1007108EE2B08007E087E
:1007E0008A007F0882000A128A11EF230A128A11F6
:1007F0008000840A04087D0603190034FF0A0319E7
:10080000FE0AF32B01300A128A119B240A128A1164
:100810000030F3000030F2000230F1005830F000F8
:100820000A128A110E250A128A1108004A346F34FE
:1008300073346534703468342034203420342034E8
:100840004D346134723479342034203420342034EF
:10085000203420343034303430343234333439348A
:100860003334393432343934303430343034303451
:10087000373439343734343434343734FA001030C0
:100880007A020318442C452C4D2C7A08803E0A121B
:100890008A119B240A128A115A2C7A08EC3EF9001C
:1008A0007908FA007A08C03E0A128A119B240A12BB
:1008B0008A115A2C08008313B430FD000430FE0066
:1008C0001630FF00A03084000A128A11F3230A12A6
:1008D0008A116F30FD000430FE002A30FF005B30CB
:1008E00084000A128A11F3230A128A1183010A1260
:1008F0008A113E2D8312031307140030F3000030D9
:10090000F2002730F1001030F0000A128A110E2593
:100910000A128A118312031307100030F30000300B
:10092000F2002730F1001030F0000A128A110E2573
:100930000A128A110800F8008312031307118711A5
:100940007808860007160030F3000030F20000300F
:10095000F1003230F0000A128A110E250A128A11B3
:100960008312031307120030F3000030F20000304E
:10097000F1003230F0000A128A110E250A128A1193
:100980000800F80083120313071187157808860002
:1009900007160030F3000030F2000030F1000A309A
:1009A000F0000A128A110E250A128A11831203130B
:1009B00007120030F3000030F2000030F1000A307E
:1009C000F0000A128A110E250A128A110800FB0093
:1009D000FA01FB2C7B0884000A128A1103200A12F8
:1009E0008A110A128A11C1240A128A110130F900EF
:1009F0007908FB07FB2C7B08031DFF2C0D2D7B08C2
:100A000084000A128A1103200A128A110038031D79
:100A10000A2D0B2DEA2C0D2D0D2D080073087204E4
:100A200071047004031D152D162D182D3D2D3D2D1F
:100A30000130F4000030F5000030F6000030F7001F
:100A40007408F0027508031C750F272D282DF1027C
:100A50007608031C760F2D2D2E2DF2027708031C2D
:100A6000770F332D342DF302730872047104700470
:100A7000031D3B2D3C2D182D3D2D080038308400E2
:100A80005B3083120313A0000408A1000A30A20007
:100A90002008840083130008A300A00A2108840012
:100AA00023088000A10AA20B482D42308400653043
:100AB000A0000408A1000A30A200200884008313CB
:100AC0000008A300A00A2108840023088000A10ACE
:100AD000A20B5D2D24308400A030A0000408A100EA
:100AE0000A30A2002008840083130008A300A00A93
:100AF0002108840023088000A10AA20B722D2E3049
:100B00008400AA30A0000408A1000A30A200200836
:100B1000840083130008A300A00A2108840023088E
:100B20008000A10AA20B872D831603138601803053
:100B30008700F330850081309900181598168312CC
:100B40000313181698170630831603139F000130FD
:100B50000A128A119B240A128A1102300A128A117F
:100B60009B240A128A1106300A128A119B240A1247
:100B70008A110C300A128A119B240A128A11383009
:100B80000A128A119B240A128A1183120313071076
:100B90008714051185110A128A1102240A128A117A
:100BA00000300A128A113E240A128A113E300A12BB
:100BB0008A11E7240A128A1114300A128A113E247B
:100BC0000A128A114B300A128A11E7240A128A117A
:100BD0000A128A117A240A128A110030F3000330B3
:100BE000F2000D30F1004030F0000A128A110E259B
:100BF0000A128A11FB2D8312031318160A128A1186
:100C000002240A128A1100300A128A113E240A12A2
:100C10008A1130300A128A11E7240A128A1114301C
:100C20000A128A113E240A128A1112300A128A11FB
:100C3000E7240A128A1183120313DA010C305A02D4
:100C4000031C232E242E262E3E2E3E2E0A128A11FF
:100C5000E0230A128A1183120313A0005A084C3EA3
:100C600084002008831380000130A0002008DA07E8
:100C70000C305A02031C3D2E3E2E262E05150A125C
:100C80008A1102240A128A1114300A128A113E248F
:100C90000A128A1101300A128A11E7240A128A11F3
:100CA0000030F3000030F2009C30F1004030F000E2
:100CB0000A128A110E250A128A1183120313D8010F
:100CC000D901DA010314DA0D0B305A02031C692E24
:100CD0006A2E6C2E8B2E8B2E5A08FF3E383E8400D7
:100CE00083130008A0005A084C3E84000008200628
:100CF00003197B2E7C2E802ED9010314D90D802E52
:100D00000130A0002008DA070B305A02031C892E9C
:100D10008A2E6C2E8B2ED908031D8F2E902E942E8A
:100D2000D8010314D80D942ED901DA010314DA0D79
:100D30000B305A02031C9D2E9E2EA02EBF2EBF2EBE
:100D40005A08FF3E423E840083130008A0005A0860
:100D50004C3E8400000820060319AF2EB02EB42E9E
:100D6000D9010314D90DB42E0130A0002008DA07F0
:100D70000B305A02031CBD2EBE2EA02EBF2ED9084A
:100D8000031DC32EC42EC92E0230A0002008D80097
:100D9000C92E0A128A1102240A128A11831203131D
:100DA0001812E02F851500300A128A113E240A120B
:100DB0008A1163300A128A11E7240A128A118312F7
:100DC0000313DA010A305A02031CE72EE82EEA2E3A
:100DD000012F012F5A08383E8400831300080A129D
:100DE0008A11C1240A128A11013083120313A00050
:100DF0002008DA070A305A02031CFF2E002FEA2EC1
:100E0000012F14300A128A113E240A128A11573017
:100E10000A128A11E7240A128A1183120313DA01D3
:100E20000A305A02031C152F162F182F2F2F2F2F81
:100E30005A08243E8400831300080A128A11C12430
:100E40000A128A11013083120313A0002008DA0766
:100E50000A305A02031C2D2F2E2F182F2F2F0A1263
:100E60008A117A240A128A11EA2F851500300A1293
:100E70008A113E240A128A115E300A128A11E7246E
:100E80000A128A1183120313DA010A305A02031C70
:100E90004A2F4B2F4D2F642F642F5A08423E840057
:100EA000831300080A128A11C1240A128A11013020
:100EB00083120313A0002008DA070A305A02031C29
:100EC000622F632F4D2F642F14300A128A113E2493
:100ED0000A128A1157300A128A11E7240A128A115B
:100EE00083120313DA010A305A02031C782F792F78
:100EF0007B2F922F922F5A082E3E840083130008D6
:100F00000A128A11C1240A128A11013083120313B2
:100F1000A0002008DA070A305A02031C902F912FF4
:100F20007B2F922F0A128A117A240A128A11EA2F31
:100F300000300A128A113E240A128A115E300A1207
:100F40008A11E7240A128A1183120313DA010314A7
:100F5000DA0D0B305A02031CAE2FAF2FB12FC82F62
:100F6000C82F5A084C3E8400831300080A128A11C5
:100F7000C1240A128A11013083120313A000200831
:100F8000DA070B305A02031CC62FC72FB12FC82F08
:100F900014300A128A113E240A128A1121300A12D0
:100FA0008A11E7240A128A110A128A117A240A1273
:100FB0008A110A128A117A240A128A11EA2FEA2F58
:100FC000831203135808013A0319D22E033A031966
:100FD000352F982F0030F3000430F2009330F100E9
:100FE000E030F0000A128A110E250A128A118312CB
:100FF000031305118511FB2DFB2D0A128A11002800
:02400E00323F3F
:00000001FF
