:100000000A128A11E32F00308A000408840A82074A
:100010000034503472346F34633465347334733461
:1000200069346E3467342E342E342E342E342E340C
:100030002E3400346F346E342034743468346534B4
:1000400020347234653461346434653472342E344F
:100050000034753473346534723420346E346F3444
:100060007434203466346F3475346E346434003440
:1000700050346C34613463346534203479346F34F3
:1000800075347234203449344434003420342034FC
:1000900020345234463449344434203464346F3488
:1000A0006F34723400342034203420347334653497
:1000B000633475347234693474347934003475348B
:1000C0007334653472343A3420340034493444345F
:0E00D0003A3420340034493444343A34003495
:1008B600831203138C1E5B2C1A08F0007008F100DB
:1008C600710808007E088A007F08820065240A12E3
:1008D6008A118000840A04087D0603190034FF0A81
:1008E6000319FE0A692C01300A128A1128250A12F8
:1008F6008A110030F3000030F2000230F100583067
:10090600F0000A128A11052508004A346F34733440
:1009160065347034683420342034203420344D3427
:100926006134723479342034203420342034203435
:100936002034303430343034323433343934333490
:100946003934323439343034303430343034373466
:1009560039343734343434343734FA0010307A02C8
:100966000318BB2C7A08803E0A128A112825080033
:100976007A08EC3EF9007908FA007A08C03E0A12B5
:100986008A11282508008312031307140030F30088
:100996000030F2002730F1001030F0000A128A1100
:1009A60005250A128A118312031307100030F3007B
:1009B6000030F2002730F1001030F0000A128A11E0
:1009C60005250800FB00FA017B08031908007B08CF
:1009D60084000A128A1103200A128A1100380319A8
:1009E60008007B0884000A128A1103200A128A1161
:1009F6000A128A114C250A128A110130F900790867
:100A0600FB07E72C730872047104700403190800CD
:100A16000130F4000030F5000030F6000030F70039
:100A26007408F0027508031C750F1A2D1B2DF102B0
:100A36007608031C760F202D212DF2027708031C61
:100A4600770F262D052DF302052DF80083120313CB
:100A5600071187117808860007160030F30000306A
:100A6600F2000030F1003230F0000A128A1105253A
:100A76000A128A118312031307120030F3000030A2
:100A8600F2000030F1003230F0000A128A1105251A
:100A96000800F800831203130711871578088600EB
:100AA60007160030F3000030F2000030F1000A3083
:100AB600F0000A128A1105250A128A1183120313FD
:100AC60007120030F3000030F2000030F1000A3067
:100AD600F0000A128A1105250800383084005B30C0
:100AE60083120313A0000408A1000A30A200200804
:100AF600840083130008A300A00A210884002308A9
:100B06008000A10AA20B7A2D423084006530A00035
:100B16000408A1000A30A2002008840083130008FC
:100B2600A300A00A2108840023088000A10AA20BC2
:100B36008F2D24308400A030A0000408A1000A30C4
:100B4600A2002008840083130008A300A00A21083D
:100B5600840023088000A10AA20BA42D2E30840055
:100B6600AA30A0000408A1000A30A20020088400D0
:100B760083130008A300A00A21088400230880002C
:100B8600A10AA20BB92D83160313860180308700B4
:100B9600F3308500813099001815981683120313D7
:100BA600181698170630831603139F0001300A1291
:100BB6008A1128250A128A1102300A128A1128255A
:100BC6000A128A1106300A128A1128250A128A1177
:100BD6000C300A128A1128250A128A1138300A1294
:100BE6008A1128250A128A11831203130710871403
:100BF600051185110A128A1176240A128A1100300B
:100C06000A128A11B0240A128A113E300A128A1177
:100C1600E5240A128A1114300A128A11B0240A1223
:100C26008A114B300A128A11E5240A128A110A1215
:100C36008A11C6240A128A110030F3000330F2002A
:100C46000D30F1004030F0000A128A1105250A1213
:100C56008A118312031318160A128A1176240A12AD
:100C66008A1100300A128A11B0240A128A11303011
:100C76000A128A11E5240A128A1114300A128A11FC
:100C8600B0240A128A1112300A128A11E5240A12B5
:100C96008A1183120313DA010C305A020318692EE3
:100CA6000A128A115B240A128A1183120313A00006
:100CB6005A084C3E84002008831380000130A000AF
:100CC6002008DA070C305A02031C532E05150A12A7
:100CD6008A1176240A128A1114300A128A11B02453
:100CE6000A128A1101300A128A11E5240A128A119F
:100CF6000030F3000030F2009C30F1004030F0008C
:100D06000A128A1105250A128A1183120313D801C1
:100D1600D901DA01DA0A0B305A020318AA2E5A0848
:100D2600FF3E383E840083130008A0005A084C3E5C
:100D36008400000820060319A22ED901D90A013021
:100D4600A0002008DA070B305A02031C922ED9089D
:100D5600031DAF2ED801D80AD901DA01DA0A0B3001
:100D66005A020318CE2E5A08FF3E423E84008313D1
:100D76000008A0005A084C3E84000008200603190B
:100D8600C62ED901D90A0130A0002008DA070B3097
:100D96005A02031CB62ED908031DD52E0230A00018
:100DA6002008D8000A128A1176240A128A118312A0
:100DB60003131812C72F851500300A128A11B024A2
:100DC6000A128A1163300A128A11E5240A128A115C
:100DD60083120313DA010A305A020318062F5A083F
:100DE600383E8400831300080A128A114C250A1221
:100DF6008A11013083120313A0002008DA070A3093
:100E06005A02031CF22E14300A128A11B0240A1256
:100E16008A1157300A128A11E5240A128A1183129E
:100E26000313DA010A305A0203182D2F5A08243EFA
:100E36008400831300080A128A114C250A128A11AB
:100E4600013083120313A0002008DA070A305A0281
:100E5600031C192F0A128A11C6240A128A11D12FCD
:100E6600851500300A128A11B0240A128A115E30E2
:100E76000A128A11E5240A128A1183120313DA016F
:100E86000A305A0203185B2F5A08423E8400831325
:100E960000080A128A114C250A128A11013083129F
:100EA6000313A0002008DA070A305A02031C472F52
:100EB60014300A128A11B0240A128A1157300A1203
:100EC6008A11E5240A128A1183120313DA010A3001
:100ED6005A020318822F5A082E3E840083130008F4
:100EE6000A128A114C250A128A1101308312031341
:100EF600A0002008DA070A305A02031C6E2F0A12D5
:100F06008A11C6240A128A11D12F00300A128A11B8
:100F1600B0240A128A115E300A128A11E5240A12D6
:100F26008A1183120313DA01DA0A0B305A02031804
:100F3600B02F5A084C3E8400831300080A128A1107
:100F46004C250A128A11013083120313A0002008CF
:100F5600DA070B305A02031C9C2F14300A128A112E
:100F6600B0240A128A1121300A128A11E5240A12C3
:100F76008A110A128A11C6240A128A110A128A11C1
:100F8600C6240A128A11D12F831203135808013A74
:100F96000319DE2E033A0319332F882F0030F3008E
:100FA6000430F2009330F100E030F0000A128A11AA
:100FB60005250A128A1183120313051185112C2E99
:100FC6008313B430FD000430FE008830FF00A030EB
:100FD60084000A128A1169240A128A116F30FD00F0
:100FE6000430FE009C30FF005B3084000A128A1138
:0A0FF600692483010A128A11702D8C
:02400E0032FF7F
:00000001FF
