:100000000A128A11372C00308A000408840A8207F9
:100010000034503472346F34633465347334733461
:1000200069346E3467342E342E342E342E342E340C
:100030002E3400346F346E342034743468346534B4
:1000400020347234653461346434653472342E344F
:100050000034753473346534723420346E346F3444
:100060007434203466346F3475346E346434003440
:1000700050346C34613463346534203479346F34F3
:1000800075347234203449344434003420342034FC
:1000900020345234463449344434203464346F3488
:1000A0006F34723400342034203420347334653497
:1000B000633475347234693474347934003475348B
:1000C0007334653472343A3420340034493444345F
:0E00D0003A3420340034493444343A34003495
:10077C00BF2B831203138C1EC42BC52BBF2BC62B74
:10078C001A08F0007008F1007108CC2B08007E08E4
:10079C008A007F088200CD230A128A118000840A05
:1007AC0004087D0603190034FF0A0319FE0AD12B35
:1007BC0001300A128A1177240A128A110030F300D0
:1007CC000030F2000230F1005830F0000A128A11A9
:1007DC00EE240A128A1108004A346F3473346534DB
:1007EC007034683420342034203420344D34613457
:1007FC0072347934203420342034203420342034A2
:10080C0030343034303432343334393433343934A2
:10081C003234393430343034303430343734393491
:10082C003734343434343734FA0010307A02031845
:10083C00202C212C292C7A08803E0A128A1177242C
:10084C000A128A11362C7A08EC3EF9007908FA0063
:10085C007A08C03E0A128A1177240A128A11362CA1
:10086C0008008313B430FD000330FE00F230FF00AB
:10087C00A03084000A128A11D1230A128A116F3017
:10088C00FD000430FE000630FF005B3084000A12CD
:10089C008A11D1230A128A1183010A128A111E2D80
:1008AC008312031307140030F3000030F2002730DA
:1008BC00F1001030F0000A128A11EE240A128A118B
:1008CC008312031307100030F3000030F2002730BE
:1008DC00F1001030F0000A128A11EE240A128A116B
:1008EC000800F8008312031307118711780886009B
:1008FC0007160030F3000030F2000030F100323007
:10090C00F0000A128A11EE240A128A1183120313C0
:10091C0007120030F3000030F2000030F1003230EA
:10092C00F0000A128A11EE240A128A110800F8004B
:10093C0083120313071187157808860007160030F9
:10094C00F3000030F2000030F1000A30F0000A121F
:10095C008A11EE240A128A11831203130712003033
:10096C00F3000030F2000030F1000A30F0000A12FF
:10097C008A11EE240A128A110800FB0003100030C1
:10098C0003180130FA00DB2C7B0884000A128A1150
:10099C0003200A128A110A128A119D240A128A1142
:1009AC000130F9007908FB07DB2C7B08031DDF2CD9
:1009BC00ED2C7B0884000A128A1103200A128A117A
:1009CC000038031DEA2CEB2CCA2CED2CED2C080066
:1009DC007308720471047004031DF52CF62CF82CAA
:1009EC001D2D1D2D0130F4000030F5000030F600F7
:1009FC000030F7007408F0027508031C750F072D02
:100A0C00082DF1027608031C760F0D2D0E2DF20227
:100A1C007708031C770F132D142DF302730872043F
:100A2C0071047004031D1B2D1C2DF82C1D2D0800AA
:100A3C00383084005B3083120313A0000408A1003B
:100A4C000A30A2002008840083130008A300A00A27
:100A5C002108840023088000A10AA20B282D423013
:100A6C0084006530A0000408A1000A30A200200810
:100A7C00840083130008A300A00A21088400230823
:100A8C008000A10AA20B3D2D24308400A030A000D0
:100A9C000408A1000A30A200200884008313000877
:100AAC00A300A00A2108840023088000A10AA20B3D
:100ABC00522D2E308400AA30A0000408A1000A3068
:100ACC00A2002008840083130008A300A00A2108B8
:100ADC00840023088000A10AA20B672D8316031340
:100AEC00860180308700F33085008130990018151D
:100AFC0098168312031318169817063083160313CF
:100B0C009F0001300A128A1177240A128A110230CE
:100B1C000A128A1177240A128A1106300A128A11D3
:100B2C0077240A128A110C300A128A1177240A12BD
:100B3C008A1138300A128A1177240A128A11831208
:100B4C00031307108714051185110A128A11DE236D
:100B5C000A128A1100300A128A111A240A128A11F6
:100B6C003E300A128A11C3240A128A1114300A1256
:100B7C008A111A240A128A114B300A128A11C324C0
:100B8C000A128A110A128A1156240A128A1100308A
:100B9C00F3000330F2000D30F1004030F0000A1287
:100BAC008A11EE240A128A11DB2D831203131816F4
:100BBC000A128A11DE230A128A1100300A128A11D3
:100BCC001A240A128A1130300A128A11C3240A120A
:100BDC008A1114300A128A111A240A128A1112303C
:100BEC000A128A11C3240A128A1103100030031846
:100BFC00013083120313DA000C305A02031C072E47
:100C0C00082E0A2E222E222E0A128A11BE230A1216
:100C1C008A1183120313A0005A084C3E840020084A
:100C2C00831380000130A0002008DA070C305A0230
:100C3C00031C212E222E0A2E05150A128A11DE23E0
:100C4C000A128A1114300A128A111A240A128A11F1
:100C5C0001300A128A11C3240A128A110030F300DF
:100C6C000030F2009C30F1004030F0000A128A1182
:100C7C00EE240A128A11031000300318013083127B
:100C8C000313D8000310003003180130D900DA0127
:100C9C000314DA0D0B305A02031C552E562E582E07
:100CAC00772E772E5A08FF3E383E840083130008B7
:100CBC00A0005A084C3E8400000820060319672E39
:100CCC00682E6C2ED9010314D90D6C2E0130A000A6
:100CDC002008DA070B305A02031C752E762E582E7C
:100CEC00772ED908031D7B2E7C2E802ED801031461
:100CFC00D80D802E0310003003180130D900DA0112
:100D0C000314DA0D0B305A02031C8D2E8E2E902EEE
:100D1C00AF2EAF2E5A08FF3E423E840083130008CC
:100D2C00A0005A084C3E84000008200603199F2E90
:100D3C00A02EA42ED9010314D90DA42E0130A0008D
:100D4C002008DA070B305A02031CAD2EAE2E902E63
:100D5C00AF2ED908031DB32EB42EB92E0230A0002D
:100D6C002008D800B92E0A128A11DE230A128A1121
:100D7C00831203131812E02F851500300A128A1102
:100D8C001A240A128A1163300A128A11C3240A1215
:100D9C008A11031000300318013083120313DA0098
:100DAC000A305A02031CDB2EDC2EDE2EF52EF52E1D
:100DBC005A08383E8400831300080A128A119D24B5
:100DCC000A128A11013083120313A0002008DA07DB
:100DDC000A305A02031CF32EF42EDE2EF52E14309C
:100DEC000A128A111A240A128A1157300A128A110D
:100DFC00C3240A128A110310003003180130831225
:100E0C000313DA000A305A02031C0D2F0E2F102F79
:100E1C00272F272F5A08243E8400831300080A1218
:100E2C008A119D240A128A11013083120313A00027
:100E3C002008DA070A305A02031C252F262F102F00
:100E4C00272F0A128A1156240A128A11EA2F8515A5
:100E5C0000300A128A111A240A128A115E300A1200
:100E6C008A11C3240A128A110310003003180130AE
:100E7C0083120313DA000A305A02031C462F472F41
:100E8C00492F602F602F5A08423E840083130008BC
:100E9C000A128A119D240A128A110130831203133B
:100EAC00A0002008DA070A305A02031C5E2F5F2FBD
:100EBC00492F602F14300A128A111A240A128A112F
:100ECC0057300A128A11C3240A128A1103100030F7
:100EDC000318013083120313DA000A305A02031C80
:100EEC00782F792F7B2F922F922F5A082E3E840029
:100EFC00831300080A128A119D240A128A110130E8
:100F0C0083120313A0002008DA070A305A02031CCC
:100F1C00902F912F7B2F922F0A128A1156240A128E
:100F2C008A11EA2F00300A128A111A240A128A1125
:100F3C005E300A128A11C3240A128A118312031317
:100F4C00DA010314DA0D0B305A02031CAE2FAF2F4B
:100F5C00B12FC82FC82F5A084C3E840083130008A9
:100F6C000A128A119D240A128A110130831203136A
:100F7C00A0002008DA070B305A02031CC62FC72F1B
:100F8C00B12FC82F14300A128A111A240A128A118E
:100F9C0021300A128A11C3240A128A110A128A11E8
:100FAC0056240A128A110A128A1156240A128A111C
:100FBC00EA2FEA2F831203135808013A0319C22EA1
:100FCC00033A03192D2F982F0030F3000430F20050
:100FDC009330F100E030F0000A128A11EE240A126C
:100FEC008A118312031305118511DB2DDB2D0A12D7
:040FFC008A1100282E
:02400E00323F3F
:00000001FF
