:10000000C83084000730FE007530FF0011208000EA
:10001000840A0408F03A03191528FF0A0319FE0A96
:1000200006287E088A007F0882000A128A11182892
:10003000C83084003730D7000A30D8000008D90013
:10004000040ADA005708840059088000040AD7001F
:100050005A088400D80B1E28D23084004130D700C3
:100060000A30D8000008D900040ADA0057088400D2
:1000700059088000040AD7005A088400D80B322897
:10008000DC3084002D30D7000A30D8000008D900B9
:10009000040ADA005708840059088000040AD700CF
:1000A0005A088400D80B4628E63084002330D70055
:1000B0000A30D8000008D900040ADA005708840082
:1000C00059088000040AD7005A088400D80B5A281F
:1000D00003108316031300300318013086008030AC
:1000E0008700F33085008130990018159816831227
:1000F0000313181698170630831603139F00013058
:100100000A128A11D9260A128A1102300A128A1199
:10011000D9260A128A1106300A128A11D9260A1221
:100120008A110C300A128A11D9260A128A11383023
:100130000A128A11D9260A128A1183120313071090
:100140008714051185110A128A1160260A128A1174
:1001500000300A128A1176260A128A113E300A12DB
:100160008A11CB270A128A1114300A128A117626B4
:100170000A128A114B300A128A11CB270A128A11ED
:100180000A128A1194260A128A118312031300306C
:10019000E2000330E1000D30E0004030DF000A12E1
:1001A0008A119D270A128A118312031318160A1244
:1001B0008A1160260A128A1100300A128A117626E4
:1001C0000A128A1130300A128A11CB270A128A11B8
:1001D00014300A128A1176260A128A1112300A1273
:1001E0008A11CB270A128A110310831203130030DD
:1001F00003180130A200FC280A128A1155260A129F
:100200008A1183120313D700220883134B3E840004
:10021000570880000130D7005708A2070C3022028F
:10022000031C13291429FC2805150A128A116026BB
:100230000A128A1114300A128A1176260A128A11B9
:1002400001300A128A11CB270A128A118312031372
:100250000030E2000030E1009C30E0004030DF0080
:100260000A128A119D270A128A110310831203139E
:10027000003003180130A0000310003003180130D3
:10028000A100A2010314A20D452922088313FF3EF9
:10029000373E84000008D70022084B3E8400000847
:1002A00057060319542955295829A1010314A10DF2
:1002B0000130D7005708A2070B302202031C612926
:1002C00062294529A108031D662967296A29A00119
:1002D0000314A00D0310003003180130A100A20187
:1002E0000314A20D73292208FF3E413E840000083A
:1002F000D70022084B3E84000008570603198129C5
:1003000082298529A1010314A10D0130D7005708C6
:10031000A2070B302202031C8E298F297329A10802
:10032000031D9329942996290230A0000A128A11EC
:1003300060260A128A11831203131812942A851553
:1003400000300A128A1176260A128A1163300A12C4
:100350008A11CB270A128A1103108312031300306B
:1003600003180130A200B42922088313373E840009
:1003700000080A128A11B5260A128A110130831266
:100380000313D7005708A2070A302202031CC92909
:10039000CA29B42914300A128A1176260A128A113F
:1003A00057300A128A11CB270A128A1103108312BE
:1003B0000313003003180130A200DE292208831342
:1003C0002D3E840000080A128A11B5260A128A11ED
:1003D000013083120313D7005708A2070A30220204
:1003E000031CF329F429DE290A128A1194260A1221
:1003F0008A119D2A851500300A128A1176260A1262
:100400008A115E300A128A11CB270A128A11031050
:1004100083120313003003180130A2000F2A2208B0
:100420008313413E840000080A128A11B5260A127D
:100430008A11013083120313D7005708A2070A302C
:100440002202031C242A252A0F2A14300A128A1198
:1004500076260A128A1157300A128A11CB270A12FD
:100460008A11031083120313003003180130A20015
:10047000392A22088313233E840000080A128A11B5
:10048000B5260A128A11013083120313D7005708C8
:10049000A2070A302202031C4E2A4F2A392A0A12C6
:1004A0008A1194260A128A119D2A00300A128A1192
:1004B00076260A128A115E300A128A11CB270A1296
:1004C0008A1183120313A2010314A20D672A2208C2
:1004D00083134B3E840000080A128A11B5260A12C3
:1004E0008A11013083120313D7005708A2070B307B
:1004F0002202031C7C2A7D2A672A14300A128A11E0
:1005000076260A128A1121300A128A11CB270A1282
:100510008A110A128A1194260A128A110A128A1161
:1005200094260A128A119D2A20088313013A03197E
:100530009F29033A0319FA29552A8312031300301D
:10054000E2000430E1009330E000E030DF000A1206
:100550008A119D270A128A1183120313051185112E
:08056000D4280A128A110028B8
:100CAA00562E8C1E592E5A2E562E1A08DB005B0819
:100CBA0083135F2E080001300A128A11D9260A12FC
:100CCA008A11831203130030E2000030E10002307F
:100CDA00E0005830DF000A128A119D270A128A1191
:100CEA00080083120313DB0010305B0203187E2E08
:100CFA007F2E882E5B088313803E0A128A11D9261A
:100D0A000A128A11932E5B088313EC3EDB005B0800
:100D1A00C03E0A128A11D9260A128A1108008312C1
:100D2A00031307140030E2000030E1002730E0002E
:100D3A001030DF000A128A119D270A128A118312C3
:100D4A00031307100030E2000030E1002730E00012
:100D5A001030DF000A128A119D270A128A11080030
:100D6A00DE00071187155E08860007160030E200CC
:100D7A000030E1000030E0000A30DF000A128A1178
:100D8A009D270A128A118312031307120030E20008
:100D9A000030E1000030E0000A30DF000A128A1158
:100DAA009D270A128A11080083120313DC00071117
:100DBA0087115C088313860007160030E2000030B2
:100DCA00E1000030E0003230DF000A128A119D276C
:100DDA000A128A118312031307120030E20000304C
:100DEA00E1000030E0003230DF000A128A119D274C
:100DFA000A128A110800FE00FE1F082F83137E18AC
:100E0A008317000808000408FE0007308A007E08DD
:100E1A0082070034503472346F3463346534733467
:100E2A00733469346E3467342E342E342E342E34AF
:100E3A002E342E3400346F346E34203474346834D3
:100E4A006534203472346534613464346534723400
:100E5A002E340034753473346534723420346E346D
:100E6A006F347434203466346F3475346E346434B9
:100E7A00003450346C34613463346534203479344A
:100E8A006F34753472342034493444340034203495
:100E9A0020342034523446344934443420346434BF
:100EAA006F346F3472340034203420342034733475
:100EBA006534633475347234693474347934003483
:100ECA0075347334653472343A3420340034493416
:100EDA0044343A3420340034493444343A34003403
:100EEA0030343034303432343334393433343934BE
:100EFA0032343934303430343034303437343934AD
:100F0A0037343434343437344A346F3473346534D0
:100F1A007034683420342034203420344D34613421
:100F2A00723479342034203420342034203420346C
:100F3A006208610460045F04031DA42FA52FA62F75
:100F4A00CA2F0130E3000030E4000030E500003031
:100F5A00E6006308DF026408031C640FB52FB62F8E
:100F6A00E0026508031C650FBB2FBC2FE10266086F
:100F7A00031C660FC12FC22FE202620861046004DB
:100F8A005F04031DC92FCA2FA62F0800831203135B
:100F9A00DC000310003003180130DB00E52F5C0889
:100FAA000A128A1109270A128A110A128A11B52607
:100FBA000A128A11013083120313DD005D08DC076F
:100FCA00DC08031DE92FF52F5C0883130A128A1126
:100FDA0009270A128A110038031DF42FF52FD42F7E
:020FEA000800FD
:02400E00323F3F
:00000001FF
